{
  "contractName": "Patient",
  "abi": [
    {
      "constant": false,
      "inputs": [],
      "name": "get",
      "outputs": [
        {
          "name": "",
          "type": "string"
        }
      ],
      "payable": false,
      "stateMutability": "nonpayable",
      "type": "function"
    }
  ],
  "bytecode": "0x60806040526040518060600160405280602e815260200161027a602e913960009080519060200190610032929190610045565b5034801561003f57600080fd5b506100ea565b828054600181600116156101000203166002900490600052602060002090601f016020900481019282601f1061008657805160ff19168380011785556100b4565b828001600101855582156100b4579182015b828111156100b3578251825591602001919060010190610098565b5b5090506100c191906100c5565b5090565b6100e791905b808211156100e35760008160009055506001016100cb565b5090565b90565b610181806100f96000396000f3fe608060405234801561001057600080fd5b506004361061002b5760003560e01c80636d4ce63c14610030575b600080fd5b6100386100b3565b6040518080602001828103825283818151815260200191508051906020019080838360005b8381101561007857808201518184015260208101905061005d565b50505050905090810190601f1680156100a55780820380516001836020036101000a031916815260200191505b509250505060405180910390f35b606060008054600181600116156101000203166002900480601f01602080910402602001604051908101604052809291908181526020018280546001816001161561010002031660029004801561014b5780601f106101205761010080835404028352916020019161014b565b820191906000526020600020905b81548152906001019060200180831161012e57829003601f168201915b505050505090509056fea165627a7a7230582051d6e04fb1e6f9ab55ea93223f25d1f780ce775b8ca370eb9ffbb399854e459f0029516d51506d6f4576624d736f56657151527a416a356b6d337974594c76584c557668434762694c58315963786b48",
  "source": "pragma solidity ^0.5.0;\r\n\r\ncontract Patient {\r\n  string x=\"QmQPmoEvbMsoVeqQRzAj5km3ytYLvXLUvhCGbiLX1YcxkH\";\r\n\r\n  /*function set(string memory ipfsHash) public {\r\n    x = ipfsHash;\r\n  }*/\r\n\r\n  function get() public returns (string memory) {\r\n    return x;\r\n  }\r\n}",
  "sourcePath": "C:/Users/Maliha/image_save/contracts/Patient.sol",
  "compiler": {
    "name": "solc",
    "version": "0.5.8+commit.23d335f2.Emscripten.clang"
  },
  "schemaVersion": "3.0.12",
  "updatedAt": "2019-08-31T15:36:40.851Z",
  "devdoc": {
    "methods": {}
  },
  "userdoc": {
    "methods": {}
  }
}